{"abi":[{"type":"constructor","inputs":[{"name":"_finder","type":"address","internalType":"address"},{"name":"_collateral","type":"address","internalType":"address"},{"name":"_bondAmount","type":"uint256","internalType":"uint256"},{"name":"_rules","type":"string","internalType":"string"},{"name":"_identifier","type":"bytes32","internalType":"bytes32"},{"name":"_liveness","type":"uint64","internalType":"uint64"}],"stateMutability":"nonpayable"},{"type":"function","name":"EXPLANATION_KEY","inputs":[],"outputs":[{"name":"","type":"bytes","internalType":"bytes"}],"stateMutability":"view"},{"type":"function","name":"PROPOSAL_HASH_KEY","inputs":[],"outputs":[{"name":"","type":"bytes","internalType":"bytes"}],"stateMutability":"view"},{"type":"function","name":"RULES_KEY","inputs":[],"outputs":[{"name":"","type":"bytes","internalType":"bytes"}],"stateMutability":"view"},{"type":"function","name":"assertionDisputedCallback","inputs":[{"name":"assertionId","type":"bytes32","internalType":"bytes32"}],"outputs":[],"stateMutability":"nonpayable"},{"type":"function","name":"assertionIds","inputs":[{"name":"","type":"bytes32","internalType":"bytes32"}],"outputs":[{"name":"","type":"bytes32","internalType":"bytes32"}],"stateMutability":"view"},{"type":"function","name":"assertionProposer","inputs":[{"name":"","type":"bytes32","internalType":"bytes32"}],"outputs":[{"name":"","type":"address","internalType":"address"}],"stateMutability":"view"},{"type":"function","name":"assertionResolvedCallback","inputs":[{"name":"assertionId","type":"bytes32","internalType":"bytes32"},{"name":"assertedTruthfully","type":"bool","internalType":"bool"}],"outputs":[],"stateMutability":"nonpayable"},{"type":"function","name":"assertionTimestamps","inputs":[{"name":"","type":"bytes32","internalType":"bytes32"}],"outputs":[{"name":"","type":"uint256","internalType":"uint256"}],"stateMutability":"view"},{"type":"function","name":"bondAmount","inputs":[],"outputs":[{"name":"","type":"uint256","internalType":"uint256"}],"stateMutability":"view"},{"type":"function","name":"bundles","inputs":[{"name":"","type":"uint256","internalType":"uint256"},{"name":"","type":"address","internalType":"address"}],"outputs":[{"name":"","type":"string","internalType":"string"}],"stateMutability":"view"},{"type":"function","name":"collateral","inputs":[],"outputs":[{"name":"","type":"address","internalType":"contract IERC20"}],"stateMutability":"view"},{"type":"function","name":"deleteProposalOnUpgrade","inputs":[{"name":"proposalHash","type":"bytes32","internalType":"bytes32"}],"outputs":[],"stateMutability":"nonpayable"},{"type":"function","name":"escalationManager","inputs":[],"outputs":[{"name":"","type":"address","internalType":"address"}],"stateMutability":"view"},{"type":"function","name":"finder","inputs":[],"outputs":[{"name":"","type":"address","internalType":"contract FinderInterface"}],"stateMutability":"view"},{"type":"function","name":"getCurrentTime","inputs":[],"outputs":[{"name":"","type":"uint256","internalType":"uint256"}],"stateMutability":"view"},{"type":"function","name":"getProposalBond","inputs":[],"outputs":[{"name":"","type":"uint256","internalType":"uint256"}],"stateMutability":"view"},{"type":"function","name":"identifier","inputs":[],"outputs":[{"name":"","type":"bytes32","internalType":"bytes32"}],"stateMutability":"view"},{"type":"function","name":"lastFinalizedTimestamp","inputs":[],"outputs":[{"name":"","type":"uint256","internalType":"uint256"}],"stateMutability":"view"},{"type":"function","name":"liveness","inputs":[],"outputs":[{"name":"","type":"uint64","internalType":"uint64"}],"stateMutability":"view"},{"type":"function","name":"optimisticOracleV3","inputs":[],"outputs":[{"name":"","type":"address","internalType":"contract OptimisticOracleV3Interface"}],"stateMutability":"view"},{"type":"function","name":"owner","inputs":[],"outputs":[{"name":"","type":"address","internalType":"address"}],"stateMutability":"view"},{"type":"function","name":"proposalHashes","inputs":[{"name":"","type":"bytes32","internalType":"bytes32"}],"outputs":[{"name":"","type":"bytes32","internalType":"bytes32"}],"stateMutability":"view"},{"type":"function","name":"proposeBundle","inputs":[{"name":"_bundleData","type":"string","internalType":"string"}],"outputs":[],"stateMutability":"nonpayable"},{"type":"function","name":"proposeTransactions","inputs":[{"name":"transactions","type":"tuple[]","internalType":"struct OptimisticProposer.Transaction[]","components":[{"name":"to","type":"address","internalType":"address"},{"name":"operation","type":"uint8","internalType":"enum Enum.Operation"},{"name":"value","type":"uint256","internalType":"uint256"},{"name":"data","type":"bytes","internalType":"bytes"}]},{"name":"explanation","type":"bytes","internalType":"bytes"}],"outputs":[],"stateMutability":"nonpayable"},{"type":"function","name":"renounceOwnership","inputs":[],"outputs":[],"stateMutability":"nonpayable"},{"type":"function","name":"rules","inputs":[],"outputs":[{"name":"","type":"string","internalType":"string"}],"stateMutability":"view"},{"type":"function","name":"setCollateralAndBond","inputs":[{"name":"_collateral","type":"address","internalType":"contract IERC20"},{"name":"_bondAmount","type":"uint256","internalType":"uint256"}],"outputs":[],"stateMutability":"nonpayable"},{"type":"function","name":"setEscalationManager","inputs":[{"name":"_escalationManager","type":"address","internalType":"address"}],"outputs":[],"stateMutability":"nonpayable"},{"type":"function","name":"setIdentifier","inputs":[{"name":"_identifier","type":"bytes32","internalType":"bytes32"}],"outputs":[],"stateMutability":"nonpayable"},{"type":"function","name":"setLiveness","inputs":[{"name":"_liveness","type":"uint64","internalType":"uint64"}],"outputs":[],"stateMutability":"nonpayable"},{"type":"function","name":"setRules","inputs":[{"name":"_rules","type":"string","internalType":"string"}],"outputs":[],"stateMutability":"nonpayable"},{"type":"function","name":"setUp","inputs":[{"name":"initializeParams","type":"bytes","internalType":"bytes"}],"outputs":[],"stateMutability":"nonpayable"},{"type":"function","name":"sync","inputs":[],"outputs":[],"stateMutability":"nonpayable"},{"type":"function","name":"transferOwnership","inputs":[{"name":"newOwner","type":"address","internalType":"address"}],"outputs":[],"stateMutability":"nonpayable"},{"type":"event","name":"BundleProposed","inputs":[{"name":"timestamp","type":"uint256","indexed":true,"internalType":"uint256"},{"name":"bundleProposer","type":"address","indexed":true,"internalType":"address"},{"name":"bundleData","type":"string","indexed":false,"internalType":"string"}],"anonymous":false},{"type":"event","name":"BundleTrackerDeployed","inputs":[{"name":"rules","type":"string","indexed":false,"internalType":"string"}],"anonymous":false},{"type":"event","name":"Initialized","inputs":[{"name":"version","type":"uint8","indexed":false,"internalType":"uint8"}],"anonymous":false},{"type":"event","name":"OptimisticOracleChanged","inputs":[{"name":"newOptimisticOracleV3","type":"address","indexed":true,"internalType":"address"}],"anonymous":false},{"type":"event","name":"OwnershipTransferred","inputs":[{"name":"previousOwner","type":"address","indexed":true,"internalType":"address"},{"name":"newOwner","type":"address","indexed":true,"internalType":"address"}],"anonymous":false},{"type":"event","name":"ProposalDeleted","inputs":[{"name":"proposalHash","type":"bytes32","indexed":true,"internalType":"bytes32"},{"name":"assertionId","type":"bytes32","indexed":true,"internalType":"bytes32"}],"anonymous":false},{"type":"event","name":"ProposalExecuted","inputs":[{"name":"proposalHash","type":"bytes32","indexed":true,"internalType":"bytes32"},{"name":"assertionId","type":"bytes32","indexed":true,"internalType":"bytes32"}],"anonymous":false},{"type":"event","name":"SetCollateralAndBond","inputs":[{"name":"collateral","type":"address","indexed":true,"internalType":"contract IERC20"},{"name":"bondAmount","type":"uint256","indexed":true,"internalType":"uint256"}],"anonymous":false},{"type":"event","name":"SetEscalationManager","inputs":[{"name":"escalationManager","type":"address","indexed":true,"internalType":"address"}],"anonymous":false},{"type":"event","name":"SetIdentifier","inputs":[{"name":"identifier","type":"bytes32","indexed":true,"internalType":"bytes32"}],"anonymous":false},{"type":"event","name":"SetLiveness","inputs":[{"name":"liveness","type":"uint64","indexed":true,"internalType":"uint64"}],"anonymous":false},{"type":"event","name":"SetRules","inputs":[{"name":"rules","type":"string","indexed":false,"internalType":"string"}],"anonymous":false},{"type":"event","name":"SetVaultTracker","inputs":[{"name":"vaultTracker","type":"address","indexed":true,"internalType":"address"}],"anonymous":false},{"type":"event","name":"TransactionExecuted","inputs":[{"name":"proposalHash","type":"bytes32","indexed":true,"internalType":"bytes32"},{"name":"assertionId","type":"bytes32","indexed":true,"internalType":"bytes32"},{"name":"transactionIndex","type":"uint256","indexed":true,"internalType":"uint256"}],"anonymous":false},{"type":"event","name":"TransactionsProposed","inputs":[{"name":"proposer","type":"address","indexed":true,"internalType":"address"},{"name":"proposalTime","type":"uint256","indexed":true,"internalType":"uint256"},{"name":"assertionId","type":"bytes32","indexed":true,"internalType":"bytes32"},{"name":"proposal","type":"tuple","indexed":false,"internalType":"struct OptimisticProposer.Proposal","components":[{"name":"transactions","type":"tuple[]","internalType":"struct OptimisticProposer.Transaction[]","components":[{"name":"to","type":"address","internalType":"address"},{"name":"operation","type":"uint8","internalType":"enum Enum.Operation"},{"name":"value","type":"uint256","internalType":"uint256"},{"name":"data","type":"bytes","internalType":"bytes"}]},{"name":"requestTime","type":"uint256","internalType":"uint256"}]},{"name":"proposalHash","type":"bytes32","indexed":false,"internalType":"bytes32"},{"name":"explanation","type":"bytes","indexed":false,"internalType":"bytes"},{"name":"rules","type":"string","indexed":false,"internalType":"string"},{"name":"challengeWindowEnds","type":"uint256","indexed":false,"internalType":"uint256"}],"anonymous":false}],"bytecode":{"object":"0x60806040523480156200001157600080fd5b5060405162006c3f38038062006c3f833981810160405281019062000037919062001052565b60016000806101000a81548160ff021916908315150217905550600073ffffffffffffffffffffffffffffffffffffffff168673ffffffffffffffffffffffffffffffffffffffff1603620000c3576040517f08c379a0000000000000000000000000000000000000000000000000000000008152600401620000ba906200116e565b60405180910390fd5b85606560006101000a81548173ffffffffffffffffffffffffffffffffffffffff021916908373ffffffffffffffffffffffffffffffffffffffff160217905550600085858585856040516020016200012195949392919062001220565b604051602081830303815290604052905062000143816200015060201b60201c565b5050505050505062001bfb565b60008060029054906101000a900460ff161590508080156200018457506001600060019054906101000a900460ff1660ff16105b80620001c25750620001a1306200037e60201b62001c751760201c565b158015620001c157506001600060019054906101000a900460ff1660ff16145b5b62000204576040517f08c379a0000000000000000000000000000000000000000000000000000000008152600401620001fb90620012fa565b60405180910390fd5b6001600060016101000a81548160ff021916908360ff160217905550801562000243576001600060026101000a81548160ff0219169083151502179055505b62000253620003a160201b60201c565b62000263620003bd60201b60201c565b60008060008060008680602001905181019062000281919062001361565b945094509450945094506200029d85856200042160201b60201c565b620002ae836200059d60201b60201c565b620002bf826200064260201b60201c565b620002d0816200075960201b60201c565b620002e06200086f60201b60201c565b7fe7759d0a2880d70b9f4ba50577e5ca5547385485985d0d087965d4714d7dd3638360405162000311919062001408565b60405180910390a1505050505080156200037a5760008060026101000a81548160ff0219169083151502179055507f7f26b83ff96e1f2b6a682f133852f6798a09c465da95921460cefb3847402498600160405162000371919062001486565b60405180910390a15b5050565b6000808273ffffffffffffffffffffffffffffffffffffffff163b119050919050565b60016000806101000a81548160ff021916908315150217905550565b600060029054906101000a900460ff166200040f576040517f08c379a0000000000000000000000000000000000000000000000000000000008152600401620004069062001519565b60405180910390fd5b6200041f62000a1260201b60201c565b565b6200043162000a8660201b60201c565b60006200044362000b1760201b60201c565b905060008173ffffffffffffffffffffffffffffffffffffffff16633a3ab672856040518263ffffffff1660e01b81526004016200048291906200153b565b602060405180830381865afa158015620004a0573d6000803e3d6000fd5b505050506040513d601f19601f82011682018060405250810190620004c6919062001595565b9050806200050b576040517f08c379a0000000000000000000000000000000000000000000000000000000008152600401620005029062001617565b60405180910390fd5b83606860006101000a81548173ffffffffffffffffffffffffffffffffffffffff021916908373ffffffffffffffffffffffffffffffffffffffff16021790555082606781905550828473ffffffffffffffffffffffffffffffffffffffff167f2a66a814c4ddef1225e35d7068b3458f2c2dc2a212288bdc1963b5007bdb2cd160405160405180910390a350505050565b620005ad62000a8660201b60201c565b6000815111620005f4576040517f08c379a0000000000000000000000000000000000000000000000000000000008152600401620005eb9062001689565b60405180910390fd5b80606c9081620006059190620018d7565b507fd126aed3fefb9793c6164dec52a0cd8fed9bd9a8867f4d7b41dbd6c7134ebf308160405162000637919062001408565b60405180910390a150565b6200065262000a8660201b60201c565b6200066262000bdf60201b60201c565b73ffffffffffffffffffffffffffffffffffffffff166390978d1b826040518263ffffffff1660e01b81526004016200069c9190620019be565b602060405180830381865afa158015620006ba573d6000803e3d6000fd5b505050506040513d601f19601f82011682018060405250810190620006e0919062001595565b62000722576040517f08c379a0000000000000000000000000000000000000000000000000000000008152600401620007199062001a2b565b60405180910390fd5b80606a81905550807ff35b61cf27d8ae21648935573dbd9eefad145ebc7dfe806273e3f93d9896ab9c60405160405180910390a250565b6200076962000a8660201b60201c565b60008167ffffffffffffffff1611620007b9576040517f08c379a0000000000000000000000000000000000000000000000000000000008152600401620007b09062001a9d565b60405180910390fd5b63bb7448008167ffffffffffffffff16106200080c576040517f08c379a0000000000000000000000000000000000000000000000000000000008152600401620008039062001b35565b60405180910390fd5b80606b60006101000a81548167ffffffffffffffff021916908367ffffffffffffffff1602179055508067ffffffffffffffff167f0ccc3b904401a4ffd81153f4acf19daaa09629a146f2642dc4785ff2d243d3aa60405160405180910390a250565b6000606560009054906101000a900473ffffffffffffffffffffffffffffffffffffffff1673ffffffffffffffffffffffffffffffffffffffff1663aafd5e407f4f7074696d69737469634f7261636c65563300000000000000000000000000006040518263ffffffff1660e01b8152600401620008ee9190620019be565b602060405180830381865afa1580156200090c573d6000803e3d6000fd5b505050506040513d601f19601f8201168201806040525081019062000932919062001b57565b9050606660009054906101000a900473ffffffffffffffffffffffffffffffffffffffff1673ffffffffffffffffffffffffffffffffffffffff168173ffffffffffffffffffffffffffffffffffffffff161462000a0f5780606660006101000a81548173ffffffffffffffffffffffffffffffffffffffff021916908373ffffffffffffffffffffffffffffffffffffffff1602179055508073ffffffffffffffffffffffffffffffffffffffff167f31103d28ed1d18b7a077591828239e8047e75f9af1c1389abb0faa5fbb78bcbe60405160405180910390a25b50565b600060029054906101000a900460ff1662000a64576040517f08c379a000000000000000000000000000000000000000000000000000000000815260040162000a5b9062001519565b60405180910390fd5b62000a8462000a7862000ca760201b60201c565b62000caf60201b60201c565b565b62000a9662000ca760201b60201c565b73ffffffffffffffffffffffffffffffffffffffff1662000abc62000d7560201b60201c565b73ffffffffffffffffffffffffffffffffffffffff161462000b15576040517f08c379a000000000000000000000000000000000000000000000000000000000815260040162000b0c9062001bd9565b60405180910390fd5b565b6000606560009054906101000a900473ffffffffffffffffffffffffffffffffffffffff1673ffffffffffffffffffffffffffffffffffffffff1663aafd5e407f436f6c6c61746572616c57686974656c697374000000000000000000000000006040518263ffffffff1660e01b815260040162000b969190620019be565b602060405180830381865afa15801562000bb4573d6000803e3d6000fd5b505050506040513d601f19601f8201168201806040525081019062000bda919062001b57565b905090565b6000606560009054906101000a900473ffffffffffffffffffffffffffffffffffffffff1673ffffffffffffffffffffffffffffffffffffffff1663aafd5e407f4964656e74696669657257686974656c697374000000000000000000000000006040518263ffffffff1660e01b815260040162000c5e9190620019be565b602060405180830381865afa15801562000c7c573d6000803e3d6000fd5b505050506040513d601f19601f8201168201806040525081019062000ca2919062001b57565b905090565b600033905090565b6000603360009054906101000a900473ffffffffffffffffffffffffffffffffffffffff16905081603360006101000a81548173ffffffffffffffffffffffffffffffffffffffff021916908373ffffffffffffffffffffffffffffffffffffffff1602179055508173ffffffffffffffffffffffffffffffffffffffff168173ffffffffffffffffffffffffffffffffffffffff167f8be0079c531659141344cd1fd0a4f28419497f9722a3daafe3b4186f6b6457e060405160405180910390a35050565b6000603360009054906101000a900473ffffffffffffffffffffffffffffffffffffffff16905090565b6000604051905090565b600080fd5b600080fd5b600073ffffffffffffffffffffffffffffffffffffffff82169050919050565b600062000de08262000db3565b9050919050565b62000df28162000dd3565b811462000dfe57600080fd5b50565b60008151905062000e128162000de7565b92915050565b6000819050919050565b62000e2d8162000e18565b811462000e3957600080fd5b50565b60008151905062000e4d8162000e22565b92915050565b600080fd5b600080fd5b6000601f19601f8301169050919050565b7f4e487b7100000000000000000000000000000000000000000000000000000000600052604160045260246000fd5b62000ea88262000e5d565b810181811067ffffffffffffffff8211171562000eca5762000ec962000e6e565b5b80604052505050565b600062000edf62000d9f565b905062000eed828262000e9d565b919050565b600067ffffffffffffffff82111562000f105762000f0f62000e6e565b5b62000f1b8262000e5d565b9050602081019050919050565b60005b8381101562000f4857808201518184015260208101905062000f2b565b60008484015250505050565b600062000f6b62000f658462000ef2565b62000ed3565b90508281526020810184848401111562000f8a5762000f8962000e58565b5b62000f9784828562000f28565b509392505050565b600082601f83011262000fb75762000fb662000e53565b5b815162000fc984826020860162000f54565b91505092915050565b6000819050919050565b62000fe78162000fd2565b811462000ff357600080fd5b50565b600081519050620010078162000fdc565b92915050565b600067ffffffffffffffff82169050919050565b6200102c816200100d565b81146200103857600080fd5b50565b6000815190506200104c8162001021565b92915050565b60008060008060008060c0878903121562001072576200107162000da9565b5b60006200108289828a0162000e01565b96505060206200109589828a0162000e01565b9550506040620010a889828a0162000e3c565b945050606087015167ffffffffffffffff811115620010cc57620010cb62000dae565b5b620010da89828a0162000f9f565b9350506080620010ed89828a0162000ff6565b92505060a06200110089828a016200103b565b9150509295509295509295565b600082825260208201905092915050565b7f46696e64657220616464726573732063616e206e6f7420626520656d70747900600082015250565b600062001156601f836200110d565b915062001163826200111e565b602082019050919050565b60006020820190508181036000830152620011898162001147565b9050919050565b6200119b8162000dd3565b82525050565b620011ac8162000e18565b82525050565b600081519050919050565b6000620011ca82620011b2565b620011d681856200110d565b9350620011e881856020860162000f28565b620011f38162000e5d565b840191505092915050565b620012098162000fd2565b82525050565b6200121a816200100d565b82525050565b600060a08201905062001237600083018862001190565b620012466020830187620011a1565b81810360408301526200125a8186620011bd565b90506200126b6060830185620011fe565b6200127a60808301846200120f565b9695505050505050565b7f496e697469616c697a61626c653a20636f6e747261637420697320616c72656160008201527f647920696e697469616c697a6564000000000000000000000000000000000000602082015250565b6000620012e2602e836200110d565b9150620012ef8262001284565b604082019050919050565b600060208201905081810360008301526200131581620012d3565b9050919050565b6000620013298262000db3565b9050919050565b6200133b816200131c565b81146200134757600080fd5b50565b6000815190506200135b8162001330565b92915050565b600080600080600060a0868803121562001380576200137f62000da9565b5b600062001390888289016200134a565b9550506020620013a38882890162000e3c565b945050604086015167ffffffffffffffff811115620013c757620013c662000dae565b5b620013d58882890162000f9f565b9350506060620013e88882890162000ff6565b9250506080620013fb888289016200103b565b9150509295509295909350565b60006020820190508181036000830152620014248184620011bd565b905092915050565b6000819050919050565b600060ff82169050919050565b6000819050919050565b60006200146e6200146862001462846200142c565b62001443565b62001436565b9050919050565b62001480816200144d565b82525050565b60006020820190506200149d600083018462001475565b92915050565b7f496e697469616c697a61626c653a20636f6e7472616374206973206e6f74206960008201527f6e697469616c697a696e67000000000000000000000000000000000000000000602082015250565b600062001501602b836200110d565b91506200150e82620014a3565b604082019050919050565b600060208201905081810360008301526200153481620014f2565b9050919050565b600060208201905062001552600083018462001190565b92915050565b60008115159050919050565b6200156f8162001558565b81146200157b57600080fd5b50565b6000815190506200158f8162001564565b92915050565b600060208284031215620015ae57620015ad62000da9565b5b6000620015be848285016200157e565b91505092915050565b7f426f6e6420746f6b656e206e6f7420737570706f727465640000000000000000600082015250565b6000620015ff6018836200110d565b91506200160c82620015c7565b602082019050919050565b600060208201905081810360008301526200163281620015f0565b9050919050565b7f52756c65732063616e206e6f7420626520656d70747900000000000000000000600082015250565b6000620016716016836200110d565b91506200167e8262001639565b602082019050919050565b60006020820190508181036000830152620016a48162001662565b9050919050565b7f4e487b7100000000000000000000000000000000000000000000000000000000600052602260045260246000fd5b60006002820490506001821680620016f357607f821691505b602082108103620017095762001708620016ab565b5b50919050565b60008190508160005260206000209050919050565b60006020601f8301049050919050565b600082821b905092915050565b600060088302620017737fffffffffffffffffffffffffffffffffffffffffffffffffffffffffffffffff8262001734565b6200177f868362001734565b95508019841693508086168417925050509392505050565b6000620017b8620017b2620017ac8462000e18565b62001443565b62000e18565b9050919050565b6000819050919050565b620017d48362001797565b620017ec620017e382620017bf565b84845462001741565b825550505050565b600090565b62001803620017f4565b62001810818484620017c9565b505050565b5b8181101562001838576200182c600082620017f9565b60018101905062001816565b5050565b601f821115620018875762001851816200170f565b6200185c8462001724565b810160208510156200186c578190505b620018846200187b8562001724565b83018262001815565b50505b505050565b600082821c905092915050565b6000620018ac600019846008026200188c565b1980831691505092915050565b6000620018c7838362001899565b9150826002028217905092915050565b620018e282620011b2565b67ffffffffffffffff811115620018fe57620018fd62000e6e565b5b6200190a8254620016da565b620019178282856200183c565b600060209050601f8311600181146200194f57600084156200193a578287015190505b620019468582620018b9565b865550620019b6565b601f1984166200195f866200170f565b60005b82811015620019895784890151825560018201915060208501945060208101905062001962565b86831015620019a95784890151620019a5601f89168262001899565b8355505b6001600288020188555050505b505050505050565b6000602082019050620019d56000830184620011fe565b92915050565b7f4964656e746966696572206e6f7420737570706f727465640000000000000000600082015250565b600062001a136018836200110d565b915062001a2082620019db565b602082019050919050565b6000602082019050818103600083015262001a468162001a04565b9050919050565b7f4c6976656e6573732063616e2774206265203000000000000000000000000000600082015250565b600062001a856013836200110d565b915062001a928262001a4d565b602082019050919050565b6000602082019050818103600083015262001ab88162001a76565b9050919050565b7f4c6976656e657373206d757374206265206c657373207468616e20353230302060008201527f7765656b73000000000000000000000000000000000000000000000000000000602082015250565b600062001b1d6025836200110d565b915062001b2a8262001abf565b604082019050919050565b6000602082019050818103600083015262001b508162001b0e565b9050919050565b60006020828403121562001b705762001b6f62000da9565b5b600062001b808482850162000e01565b91505092915050565b7f4f776e61626c653a2063616c6c6572206973206e6f7420746865206f776e6572600082015250565b600062001bc16020836200110d565b915062001bce8262001b89565b602082019050919050565b6000602082019050818103600083015262001bf48162001bb2565b9050919050565b6150348062001c0b6000396000f3fe608060405234801561001057600080fd5b50600436106102055760003560e01c806380f323a71161011a578063ca22b65a116100ad578063e20dac001161007c578063e20dac00146105a4578063f1b156b2146105c0578063f2fde38b146105dc578063f913f33a146105f8578063fff6cae91461061657610205565b8063ca22b65a14610532578063ce0d8d201461054e578063d448a4ec1461056a578063d8dfeb451461058657610205565b8063ac1f5ab4116100e9578063ac1f5ab4146104aa578063ae054fdc146104da578063b9a3c84c146104f6578063c5b029891461051457610205565b806380f323a7146104345780638da5cb5b146104525780639cd5b11514610470578063a4f9edbf1461048e57610205565b806352f6747a1161019d578063715018a61161016c578063715018a61461039057806375e0fc391461039a5780637998a1c4146103b65780637e953e3e146103d457806380deec361461040457610205565b806352f6747a146103065780635ad02cab146103245780635da08758146103425780636ad0690a1461037257610205565b806329cb924d116101d957806329cb924d1461027e5780633c4432f11461029c578063413e9cde146102b857806350564e19146102d657610205565b8062c992061461020a5780631b61cd2214610226578063226beb19146102445780632618f0c614610262575b600080fd5b610224600480360381019061021f9190612abc565b610620565b005b61022e61071f565b60405161023b9190612b02565b60405180910390f35b61024c6107fb565b6040516102599190612b9c565b60405180910390f35b61027c60048036038101906102779190612cfd565b610821565b005b610286610a2c565b6040516102939190612b02565b60405180910390f35b6102b660048036038101906102b19190612d86565b610a34565b005b6102c0610b3c565b6040516102cd9190612b02565b60405180910390f35b6102f060048036038101906102eb9190612abc565b610b42565b6040516102fd9190612dc2565b60405180910390f35b61030e610b5a565b60405161031b9190612e5c565b60405180910390f35b61032c610be8565b6040516103399190612ed3565b60405180910390f35b61035c60048036038101906103579190612abc565b610c21565b6040516103699190612dc2565b60405180910390f35b61037a610c39565b6040516103879190612f04565b60405180910390f35b610398610c53565b005b6103b460048036038101906103af9190612f9b565b610c67565b005b6103be610dcb565b6040516103cb9190612dc2565b60405180910390f35b6103ee60048036038101906103e99190612abc565b610dd1565b6040516103fb9190612b02565b60405180910390f35b61041e60048036038101906104199190613007565b610de9565b60405161042b9190612e5c565b60405180910390f35b61043c610e96565b6040516104499190612b02565b60405180910390f35b61045a610e9c565b6040516104679190613056565b60405180910390f35b610478610ec6565b6040516104859190612ed3565b60405180910390f35b6104a860048036038101906104a39190613112565b610eff565b005b6104c460048036038101906104bf9190612abc565b6110da565b6040516104d19190613056565b60405180910390f35b6104f460048036038101906104ef9190612abc565b61110d565b005b6104fe611336565b60405161050b919061317c565b60405180910390f35b61051c61135c565b6040516105299190613056565b60405180910390f35b61054c60048036038101906105479190613197565b611382565b005b61056860048036038101906105639190612cfd565b611490565b005b610584600480360381019061057f9190612abc565b611526565b005b61058e611647565b60405161059b91906131e5565b60405180910390f35b6105be60048036038101906105b991906133a9565b61166d565b005b6105da60048036038101906105d59190613459565b611b18565b005b6105f660048036038101906105f19190613197565b611b97565b005b610600611c1a565b60405161060d9190612ed3565b60405180910390f35b61061e611c53565b005b610628611c98565b610630611d16565b73ffffffffffffffffffffffffffffffffffffffff166390978d1b826040518263ffffffff1660e01b81526004016106689190612dc2565b602060405180830381865afa158015610685573d6000803e3d6000fd5b505050506040513d601f19601f820116820180604052508101906106a991906134ae565b6106e8576040517f08c379a00000000000000000000000000000000000000000000000000000000081526004016106df90613527565b60405180910390fd5b80606a81905550807ff35b61cf27d8ae21648935573dbd9eefad145ebc7dfe806273e3f93d9896ab9c60405160405180910390a250565b600080606660009054906101000a900473ffffffffffffffffffffffffffffffffffffffff1673ffffffffffffffffffffffffffffffffffffffff16634360af3d606860009054906101000a900473ffffffffffffffffffffffffffffffffffffffff166040518263ffffffff1660e01b815260040161079f9190613056565b602060405180830381865afa1580156107bc573d6000803e3d6000fd5b505050506040513d601f19601f820116820180604052508101906107e0919061355c565b905060675481116107f3576067546107f5565b805b91505090565b606660009054906101000a900473ffffffffffffffffffffffffffffffffffffffff1681565b806072600042815260200190815260200160002060003373ffffffffffffffffffffffffffffffffffffffff1673ffffffffffffffffffffffffffffffffffffffff168152602001908152602001600020908161087e919061378b565b506000606660009054906101000a900473ffffffffffffffffffffffffffffffffffffffff1673ffffffffffffffffffffffffffffffffffffffff16636457c9798333306000606b60009054906101000a900467ffffffffffffffff16606860009054906101000a900473ffffffffffffffffffffffffffffffffffffffff16606754606a5460006040518a63ffffffff1660e01b815260040161092a999897969594939291906138a5565b6020604051808303816000875af1158015610949573d6000803e3d6000fd5b505050506040513d601f19601f8201168201806040525081019061096d919061394e565b9050336071600083815260200190815260200160002060006101000a81548173ffffffffffffffffffffffffffffffffffffffff021916908373ffffffffffffffffffffffffffffffffffffffff1602179055504260706000838152602001908152602001600020819055503373ffffffffffffffffffffffffffffffffffffffff16427f4efb1d8450c540f6b4d1487c3d745e24ba25ba20829bdd90727b0633560c25fb84604051610a209190612e5c565b60405180910390a35050565b600042905090565b610a3c611c98565b60008167ffffffffffffffff1611610a89576040517f08c379a0000000000000000000000000000000000000000000000000000000008152600401610a80906139c7565b60405180910390fd5b63bb7448008167ffffffffffffffff1610610ad9576040517f08c379a0000000000000000000000000000000000000000000000000000000008152600401610ad090613a59565b60405180910390fd5b80606b60006101000a81548167ffffffffffffffff021916908367ffffffffffffffff1602179055508067ffffffffffffffff167f0ccc3b904401a4ffd81153f4acf19daaa09629a146f2642dc4785ff2d243d3aa60405160405180910390a250565b606f5481565b606e6020528060005260406000206000915090505481565b606c8054610b67906135b8565b80601f0160208091040260200160405190810160405280929190818152602001828054610b93906135b8565b8015610be05780601f10610bb557610100808354040283529160200191610be0565b820191906000526020600020905b815481529060010190602001808311610bc357829003601f168201915b505050505081565b6040518060400160405280600581526020017f72756c657300000000000000000000000000000000000000000000000000000081525081565b606d6020528060005260406000206000915090505481565b606b60009054906101000a900467ffffffffffffffff1681565b610c5b611c98565b610c656000611dd9565b565b610c6f611c98565b6000610c79611e9f565b905060008173ffffffffffffffffffffffffffffffffffffffff16633a3ab672856040518263ffffffff1660e01b8152600401610cb69190613056565b602060405180830381865afa158015610cd3573d6000803e3d6000fd5b505050506040513d601f19601f82011682018060405250810190610cf791906134ae565b905080610d39576040517f08c379a0000000000000000000000000000000000000000000000000000000008152600401610d3090613ac5565b60405180910390fd5b83606860006101000a81548173ffffffffffffffffffffffffffffffffffffffff021916908373ffffffffffffffffffffffffffffffffffffffff16021790555082606781905550828473ffffffffffffffffffffffffffffffffffffffff167f2a66a814c4ddef1225e35d7068b3458f2c2dc2a212288bdc1963b5007bdb2cd160405160405180910390a350505050565b606a5481565b60706020528060005260406000206000915090505481565b6072602052816000526040600020602052806000526040600020600091509150508054610e15906135b8565b80601f0160208091040260200160405190810160405280929190818152602001828054610e41906135b8565b8015610e8e5780601f10610e6357610100808354040283529160200191610e8e565b820191906000526020600020905b815481529060010190602001808311610e7157829003601f168201915b505050505081565b60675481565b6000603360009054906101000a900473ffffffffffffffffffffffffffffffffffffffff16905090565b6040518060400160405280600b81526020017f6578706c616e6174696f6e00000000000000000000000000000000000000000081525081565b60008060029054906101000a900460ff16159050808015610f3257506001600060019054906101000a900460ff1660ff16105b80610f615750610f4130611c75565b158015610f6057506001600060019054906101000a900460ff1660ff16145b5b610fa0576040517f08c379a0000000000000000000000000000000000000000000000000000000008152600401610f9790613b57565b60405180910390fd5b6001600060016101000a81548160ff021916908360ff1602179055508015610fde576001600060026101000a81548160ff0219169083151502179055505b610fe6611f62565b610fee611f7e565b60008060008060008680602001905181019061100a9190613c3a565b9450945094509450945061101e8585610c67565b61102783611490565b61103082610620565b61103981610a34565b611041611fd7565b7fe7759d0a2880d70b9f4ba50577e5ca5547385485985d0d087965d4714d7dd363836040516110709190612e5c565b60405180910390a1505050505080156110d65760008060026101000a81548160ff0219169083151502179055507f7f26b83ff96e1f2b6a682f133852f6798a09c465da95921460cefb384740249860016040516110cd9190613d19565b60405180910390a15b5050565b60716020528060005260406000206000915054906101000a900473ffffffffffffffffffffffffffffffffffffffff1681565b611115612174565b61111d6121c3565b6000801b8103611162576040517f08c379a000000000000000000000000000000000000000000000000000000000815260040161115990613d80565b60405180910390fd5b6000606d60008381526020019081526020016000205490506000801b81036111bf576040517f08c379a00000000000000000000000000000000000000000000000000000000081526004016111b690613dec565b60405180910390fd5b600073ffffffffffffffffffffffffffffffffffffffff16606660009054906101000a900473ffffffffffffffffffffffffffffffffffffffff1673ffffffffffffffffffffffffffffffffffffffff166388302884836040518263ffffffff1660e01b81526004016112329190612dc2565b61020060405180830381865afa158015611250573d6000803e3d6000fd5b505050506040513d601f19601f820116820180604052508101906112749190613fe8565b6020015173ffffffffffffffffffffffffffffffffffffffff16146112ce576040517f08c379a00000000000000000000000000000000000000000000000000000000081526004016112c590614062565b60405180910390fd5b606d600083815260200190815260200160002060009055606e60008281526020019081526020016000206000905580827f5edbbf8fde9a20c0b179352d836e1b966c991ff50d04bb4c014ef9eaac3d75cd60405160405180910390a3506113336121df565b50565b606560009054906101000a900473ffffffffffffffffffffffffffffffffffffffff1681565b606960009054906101000a900473ffffffffffffffffffffffffffffffffffffffff1681565b61138a611c98565b611393816121fb565b806113ca5750600073ffffffffffffffffffffffffffffffffffffffff168173ffffffffffffffffffffffffffffffffffffffff16145b611409576040517f08c379a0000000000000000000000000000000000000000000000000000000008152600401611400906140ce565b60405180910390fd5b80606960006101000a81548173ffffffffffffffffffffffffffffffffffffffff021916908373ffffffffffffffffffffffffffffffffffffffff1602179055508073ffffffffffffffffffffffffffffffffffffffff167fe0bfd64da71d0b48c43fc899463d98150863aec223fad28e3584ab986d06f67060405160405180910390a250565b611498611c98565b60008151116114dc576040517f08c379a00000000000000000000000000000000000000000000000000000000081526004016114d39061413a565b60405180910390fd5b80606c90816114eb919061378b565b507fd126aed3fefb9793c6164dec52a0cd8fed9bd9a8867f4d7b41dbd6c7134ebf308160405161151b9190612e5c565b60405180910390a150565b6000606e6000838152602001908152602001600020549050606660009054906101000a900473ffffffffffffffffffffffffffffffffffffffff1673ffffffffffffffffffffffffffffffffffffffff163373ffffffffffffffffffffffffffffffffffffffff1603611639576000801b81036115d8576040517f08c379a00000000000000000000000000000000000000000000000000000000081526004016115cf90613d80565b60405180910390fd5b606d600082815260200190815260200160002060009055606e60008381526020019081526020016000206000905581817f5edbbf8fde9a20c0b179352d836e1b966c991ff50d04bb4c014ef9eaac3d75cd60405160405180910390a3611643565b6116428161110d565b5b5050565b606860009054906101000a900473ffffffffffffffffffffffffffffffffffffffff1681565b611675612174565b61167d6121c3565b6000611687610a2c565b90506000339050611696612a58565b8281602001818152505060005b85518110156117db57600073ffffffffffffffffffffffffffffffffffffffff168682815181106116d7576116d661415a565b5b60200260200101516000015173ffffffffffffffffffffffffffffffffffffffff1603611739576040517f08c379a0000000000000000000000000000000000000000000000000000000008152600401611730906141d5565b60405180910390fd5b600086828151811061174e5761174d61415a565b5b6020026020010151606001515111156117c8576117888682815181106117775761177661415a565b5b6020026020010151600001516121fb565b6117c7576040517f08c379a00000000000000000000000000000000000000000000000000000000081526004016117be90614241565b60405180910390fd5b5b80806117d390614290565b9150506116a3565b508481600001819052506000856040516020016117f891906144dc565b604051602081830303815290604052805190602001209050600061181c828761221e565b90506000801b606d60008481526020019081526020016000205414611876576040517f08c379a000000000000000000000000000000000000000000000000000000000815260040161186d9061454a565b60405180910390fd5b600061188061071f565b90506118d1853083606860009054906101000a900473ffffffffffffffffffffffffffffffffffffffff1673ffffffffffffffffffffffffffffffffffffffff16612309909392919063ffffffff16565b611940606660009054906101000a900473ffffffffffffffffffffffffffffffffffffffff1682606860009054906101000a900473ffffffffffffffffffffffffffffffffffffffff1673ffffffffffffffffffffffffffffffffffffffff166123929092919063ffffffff16565b6000606660009054906101000a900473ffffffffffffffffffffffffffffffffffffffff1673ffffffffffffffffffffffffffffffffffffffff16636457c979848830606960009054906101000a900473ffffffffffffffffffffffffffffffffffffffff16606b60009054906101000a900467ffffffffffffffff16606860009054906101000a900473ffffffffffffffffffffffffffffffffffffffff1689606a546000801b6040518a63ffffffff1660e01b8152600401611a0c9998979695949392919061456a565b6020604051808303816000875af1158015611a2b573d6000803e3d6000fd5b505050506040513d601f19601f82011682018060405250810190611a4f919061394e565b905080606d60008681526020019081526020016000208190555083606e60008381526020019081526020016000208190555080878773ffffffffffffffffffffffffffffffffffffffff167f3100c6fe4fcf9f84fa7552fac0148f6481fa5a5c79da76d0460fa5cd7852566d88888d606c606b60009054906101000a900467ffffffffffffffff1667ffffffffffffffff168f611aec91906145fe565b604051611afd959493929190614779565b60405180910390a450505050505050611b146121df565b5050565b606660009054906101000a900473ffffffffffffffffffffffffffffffffffffffff1673ffffffffffffffffffffffffffffffffffffffff163373ffffffffffffffffffffffffffffffffffffffff1614611b7257600080fd5b8015611b93576070600083815260200190815260200160002054606f819055505b5050565b611b9f611c98565b600073ffffffffffffffffffffffffffffffffffffffff168173ffffffffffffffffffffffffffffffffffffffff1603611c0e576040517f08c379a0000000000000000000000000000000000000000000000000000000008152600401611c0590614853565b60405180910390fd5b611c1781611dd9565b50565b6040518060400160405280600c81526020017f70726f706f73616c48617368000000000000000000000000000000000000000081525081565b611c5b612174565b611c636121c3565b611c6b611fd7565b611c736121df565b565b6000808273ffffffffffffffffffffffffffffffffffffffff163b119050919050565b611ca06124a4565b73ffffffffffffffffffffffffffffffffffffffff16611cbe610e9c565b73ffffffffffffffffffffffffffffffffffffffff1614611d14576040517f08c379a0000000000000000000000000000000000000000000000000000000008152600401611d0b906148bf565b60405180910390fd5b565b6000606560009054906101000a900473ffffffffffffffffffffffffffffffffffffffff1673ffffffffffffffffffffffffffffffffffffffff1663aafd5e407f4964656e74696669657257686974656c697374000000000000000000000000006040518263ffffffff1660e01b8152600401611d939190612dc2565b602060405180830381865afa158015611db0573d6000803e3d6000fd5b505050506040513d601f19601f82011682018060405250810190611dd491906148df565b905090565b6000603360009054906101000a900473ffffffffffffffffffffffffffffffffffffffff16905081603360006101000a81548173ffffffffffffffffffffffffffffffffffffffff021916908373ffffffffffffffffffffffffffffffffffffffff1602179055508173ffffffffffffffffffffffffffffffffffffffff168173ffffffffffffffffffffffffffffffffffffffff167f8be0079c531659141344cd1fd0a4f28419497f9722a3daafe3b4186f6b6457e060405160405180910390a35050565b6000606560009054906101000a900473ffffffffffffffffffffffffffffffffffffffff1673ffffffffffffffffffffffffffffffffffffffff1663aafd5e407f436f6c6c61746572616c57686974656c697374000000000000000000000000006040518263ffffffff1660e01b8152600401611f1c9190612dc2565b602060405180830381865afa158015611f39573d6000803e3d6000fd5b505050506040513d601f19601f82011682018060405250810190611f5d91906148df565b905090565b60016000806101000a81548160ff021916908315150217905550565b600060029054906101000a900460ff16611fcd576040517f08c379a0000000000000000000000000000000000000000000000000000000008152600401611fc49061497e565b60405180910390fd5b611fd56124ac565b565b6000606560009054906101000a900473ffffffffffffffffffffffffffffffffffffffff1673ffffffffffffffffffffffffffffffffffffffff1663aafd5e407f4f7074696d69737469634f7261636c65563300000000000000000000000000006040518263ffffffff1660e01b81526004016120549190612dc2565b602060405180830381865afa158015612071573d6000803e3d6000fd5b505050506040513d601f19601f8201168201806040525081019061209591906148df565b9050606660009054906101000a900473ffffffffffffffffffffffffffffffffffffffff1673ffffffffffffffffffffffffffffffffffffffff168173ffffffffffffffffffffffffffffffffffffffff16146121715780606660006101000a81548173ffffffffffffffffffffffffffffffffffffffff021916908373ffffffffffffffffffffffffffffffffffffffff1602179055508073ffffffffffffffffffffffffffffffffffffffff167f31103d28ed1d18b7a077591828239e8047e75f9af1c1389abb0faa5fbb78bcbe60405160405180910390a25b50565b60008054906101000a900460ff166121c1576040517f08c379a00000000000000000000000000000000000000000000000000000000081526004016121b8906149ea565b60405180910390fd5b565b60008060006101000a81548160ff021916908315150217905550565b60016000806101000a81548160ff021916908315150217905550565b6000808273ffffffffffffffffffffffffffffffffffffffff163b119050919050565b606061226f604051806020016040528060008152506040518060400160405280600c81526020017f70726f706f73616c4861736800000000000000000000000000000000000000008152508561250d565b6040518060400160405280600b81526020017f6578706c616e6174696f6e000000000000000000000000000000000000000000815250836040518060400160405280600581526020017f72756c6573000000000000000000000000000000000000000000000000000000815250606c6040516020016122f2959493929190614c04565b604051602081830303815290604052905092915050565b61238c846323b872dd60e01b85858560405160240161232a93929190614c86565b604051602081830303815290604052907bffffffffffffffffffffffffffffffffffffffffffffffffffffffff19166020820180517bffffffffffffffffffffffffffffffffffffffffffffffffffffffff8381831617835250505050612553565b50505050565b60008373ffffffffffffffffffffffffffffffffffffffff1663dd62ed3e30856040518363ffffffff1660e01b81526004016123cf929190614cbd565b602060405180830381865afa1580156123ec573d6000803e3d6000fd5b505050506040513d601f19601f82011682018060405250810190612410919061355c565b905061249e8463095ea7b360e01b85858561242b91906145fe565b60405160240161243c929190614ce6565b604051602081830303815290604052907bffffffffffffffffffffffffffffffffffffffffffffffffffffffff19166020820180517bffffffffffffffffffffffffffffffffffffffffffffffffffffffff8381831617835250505050612553565b50505050565b600033905090565b600060029054906101000a900460ff166124fb576040517f08c379a00000000000000000000000000000000000000000000000000000000081526004016124f29061497e565b60405180910390fd5b61250b6125066124a4565b611dd9565b565b6060600061251b858561261b565b9050848161252885612677565b60405160200161253a93929190614d0f565b6040516020818303038152906040529150509392505050565b60006125b5826040518060400160405280602081526020017f5361666545524332303a206c6f772d6c6576656c2063616c6c206661696c65648152508573ffffffffffffffffffffffffffffffffffffffff166126b69092919063ffffffff16565b90506000815114806125d75750808060200190518101906125d691906134ae565b5b612616576040517f08c379a000000000000000000000000000000000000000000000000000000000815260040161260d90614db2565b60405180910390fd5b505050565b606060008351111561264e57816040516020016126389190614e1e565b6040516020818303038152906040529050612671565b8160405160200161265f9190614e4b565b60405160208183030381529060405290505b92915050565b6060612686608083901c6126ce565b61268f836126ce565b6040516020016126a0929190614e8e565b6040516020818303038152906040529050919050565b60606126c584846000856128a3565b90509392505050565b6000808260001c90506fffffffffffffffffffffffffffffffff8116905077ffffffffffffffff0000000000000000ffffffffffffffff68010000000000000000820282171690507bffffffff00000000ffffffff00000000ffffffff00000000ffffffff640100000000820282171690507dffff0000ffff0000ffff0000ffff0000ffff0000ffff0000ffff0000ffff62010000820282171690507eff00ff00ff00ff00ff00ff00ff00ff00ff00ff00ff00ff00ff00ff00ff00ff610100820282171690507f0f0f0f0f0f0f0f0f0f0f0f0f0f0f0f0f0f0f0f0f0f0f0f0f0f0f0f0f0f0f0f0f601082028217169050600060087f08080808080808080808080808080808080808080808080808080808080808088316816127f3576127f2614eba565b5b049050600060047f040404040404040404040404040404040404040404040404040404040404040484168161282b5761282a614eba565b5b049050600060027f020202020202020202020202020202020202020202020202020202020202020285168161286357612862614eba565b5b0490507f3030303030303030303030303030303030303030303030303030303030303030602782841785160285010193508360001b945050505050919050565b6060824710156128e8576040517f08c379a00000000000000000000000000000000000000000000000000000000081526004016128df90614f5b565b60405180910390fd5b6000808673ffffffffffffffffffffffffffffffffffffffff1685876040516129119190614f7b565b60006040518083038185875af1925050503d806000811461294e576040519150601f19603f3d011682016040523d82523d6000602084013e612953565b606091505b509150915061296487838387612970565b92505050949350505050565b606083156129d25760008351036129ca5761298a856129e5565b6129c9576040517f08c379a00000000000000000000000000000000000000000000000000000000081526004016129c090614fde565b60405180910390fd5b5b8290506129dd565b6129dc8383612a08565b5b949350505050565b6000808273ffffffffffffffffffffffffffffffffffffffff163b119050919050565b600082511115612a1b5781518083602001fd5b806040517f08c379a0000000000000000000000000000000000000000000000000000000008152600401612a4f9190612e5c565b60405180910390fd5b604051806040016040528060608152602001600081525090565b6000604051905090565b600080fd5b600080fd5b6000819050919050565b612a9981612a86565b8114612aa457600080fd5b50565b600081359050612ab681612a90565b92915050565b600060208284031215612ad257612ad1612a7c565b5b6000612ae084828501612aa7565b91505092915050565b6000819050919050565b612afc81612ae9565b82525050565b6000602082019050612b176000830184612af3565b92915050565b600073ffffffffffffffffffffffffffffffffffffffff82169050919050565b6000819050919050565b6000612b62612b5d612b5884612b1d565b612b3d565b612b1d565b9050919050565b6000612b7482612b47565b9050919050565b6000612b8682612b69565b9050919050565b612b9681612b7b565b82525050565b6000602082019050612bb16000830184612b8d565b92915050565b600080fd5b600080fd5b6000601f19601f8301169050919050565b7f4e487b7100000000000000000000000000000000000000000000000000000000600052604160045260246000fd5b612c0a82612bc1565b810181811067ffffffffffffffff82111715612c2957612c28612bd2565b5b80604052505050565b6000612c3c612a72565b9050612c488282612c01565b919050565b600067ffffffffffffffff821115612c6857612c67612bd2565b5b612c7182612bc1565b9050602081019050919050565b82818337600083830152505050565b6000612ca0612c9b84612c4d565b612c32565b905082815260208101848484011115612cbc57612cbb612bbc565b5b612cc7848285612c7e565b509392505050565b600082601f830112612ce457612ce3612bb7565b5b8135612cf4848260208601612c8d565b91505092915050565b600060208284031215612d1357612d12612a7c565b5b600082013567ffffffffffffffff811115612d3157612d30612a81565b5b612d3d84828501612ccf565b91505092915050565b600067ffffffffffffffff82169050919050565b612d6381612d46565b8114612d6e57600080fd5b50565b600081359050612d8081612d5a565b92915050565b600060208284031215612d9c57612d9b612a7c565b5b6000612daa84828501612d71565b91505092915050565b612dbc81612a86565b82525050565b6000602082019050612dd76000830184612db3565b92915050565b600081519050919050565b600082825260208201905092915050565b60005b83811015612e17578082015181840152602081019050612dfc565b60008484015250505050565b6000612e2e82612ddd565b612e388185612de8565b9350612e48818560208601612df9565b612e5181612bc1565b840191505092915050565b60006020820190508181036000830152612e768184612e23565b905092915050565b600081519050919050565b600082825260208201905092915050565b6000612ea582612e7e565b612eaf8185612e89565b9350612ebf818560208601612df9565b612ec881612bc1565b840191505092915050565b60006020820190508181036000830152612eed8184612e9a565b905092915050565b612efe81612d46565b82525050565b6000602082019050612f196000830184612ef5565b92915050565b6000612f2a82612b1d565b9050919050565b6000612f3c82612f1f565b9050919050565b612f4c81612f31565b8114612f5757600080fd5b50565b600081359050612f6981612f43565b92915050565b612f7881612ae9565b8114612f8357600080fd5b50565b600081359050612f9581612f6f565b92915050565b60008060408385031215612fb257612fb1612a7c565b5b6000612fc085828601612f5a565b9250506020612fd185828601612f86565b9150509250929050565b612fe481612f1f565b8114612fef57600080fd5b50565b60008135905061300181612fdb565b92915050565b6000806040838503121561301e5761301d612a7c565b5b600061302c85828601612f86565b925050602061303d85828601612ff2565b9150509250929050565b61305081612f1f565b82525050565b600060208201905061306b6000830184613047565b92915050565b600067ffffffffffffffff82111561308c5761308b612bd2565b5b61309582612bc1565b9050602081019050919050565b60006130b56130b084613071565b612c32565b9050828152602081018484840111156130d1576130d0612bbc565b5b6130dc848285612c7e565b509392505050565b600082601f8301126130f9576130f8612bb7565b5b81356131098482602086016130a2565b91505092915050565b60006020828403121561312857613127612a7c565b5b600082013567ffffffffffffffff81111561314657613145612a81565b5b613152848285016130e4565b91505092915050565b600061316682612b69565b9050919050565b6131768161315b565b82525050565b6000602082019050613191600083018461316d565b92915050565b6000602082840312156131ad576131ac612a7c565b5b60006131bb84828501612ff2565b91505092915050565b60006131cf82612b69565b9050919050565b6131df816131c4565b82525050565b60006020820190506131fa60008301846131d6565b92915050565b600067ffffffffffffffff82111561321b5761321a612bd2565b5b602082029050602081019050919050565b600080fd5b600080fd5b600080fd5b6002811061324857600080fd5b50565b60008135905061325a8161323b565b92915050565b60006080828403121561327657613275613231565b5b6132806080612c32565b9050600061329084828501612ff2565b60008301525060206132a48482850161324b565b60208301525060406132b884828501612f86565b604083015250606082013567ffffffffffffffff8111156132dc576132db613236565b5b6132e8848285016130e4565b60608301525092915050565b600061330761330284613200565b612c32565b9050808382526020820190506020840283018581111561332a5761332961322c565b5b835b8181101561337157803567ffffffffffffffff81111561334f5761334e612bb7565b5b80860161335c8982613260565b8552602085019450505060208101905061332c565b5050509392505050565b600082601f8301126133905761338f612bb7565b5b81356133a08482602086016132f4565b91505092915050565b600080604083850312156133c0576133bf612a7c565b5b600083013567ffffffffffffffff8111156133de576133dd612a81565b5b6133ea8582860161337b565b925050602083013567ffffffffffffffff81111561340b5761340a612a81565b5b613417858286016130e4565b9150509250929050565b60008115159050919050565b61343681613421565b811461344157600080fd5b50565b6000813590506134538161342d565b92915050565b600080604083850312156134705761346f612a7c565b5b600061347e85828601612aa7565b925050602061348f85828601613444565b9150509250929050565b6000815190506134a88161342d565b92915050565b6000602082840312156134c4576134c3612a7c565b5b60006134d284828501613499565b91505092915050565b7f4964656e746966696572206e6f7420737570706f727465640000000000000000600082015250565b6000613511601883612de8565b915061351c826134db565b602082019050919050565b6000602082019050818103600083015261354081613504565b9050919050565b60008151905061355681612f6f565b92915050565b60006020828403121561357257613571612a7c565b5b600061358084828501613547565b91505092915050565b7f4e487b7100000000000000000000000000000000000000000000000000000000600052602260045260246000fd5b600060028204905060018216806135d057607f821691505b6020821081036135e3576135e2613589565b5b50919050565b60008190508160005260206000209050919050565b60006020601f8301049050919050565b600082821b905092915050565b60006008830261364b7fffffffffffffffffffffffffffffffffffffffffffffffffffffffffffffffff8261360e565b613655868361360e565b95508019841693508086168417925050509392505050565b600061368861368361367e84612ae9565b612b3d565b612ae9565b9050919050565b6000819050919050565b6136a28361366d565b6136b66136ae8261368f565b84845461361b565b825550505050565b600090565b6136cb6136be565b6136d6818484613699565b505050565b5b818110156136fa576136ef6000826136c3565b6001810190506136dc565b5050565b601f82111561373f57613710816135e9565b613719846135fe565b81016020851015613728578190505b61373c613734856135fe565b8301826136db565b50505b505050565b600082821c905092915050565b600061376260001984600802613744565b1980831691505092915050565b600061377b8383613751565b9150826002028217905092915050565b61379482612ddd565b67ffffffffffffffff8111156137ad576137ac612bd2565b5b6137b782546135b8565b6137c28282856136fe565b600060209050601f8311600181146137f557600084156137e3578287015190505b6137ed858261376f565b865550613855565b601f198416613803866135e9565b60005b8281101561382b57848901518255600182019150602085019450602081019050613806565b868310156138485784890151613844601f891682613751565b8355505b6001600288020188555050505b505050505050565b6000819050919050565b60008160001b9050919050565b600061388f61388a6138858461385d565b613867565b612a86565b9050919050565b61389f81613874565b82525050565b60006101208201905081810360008301526138c0818c612e9a565b90506138cf602083018b613047565b6138dc604083018a613047565b6138e96060830189613047565b6138f66080830188612ef5565b61390360a08301876131d6565b61391060c0830186612af3565b61391d60e0830185612db3565b61392b610100830184613896565b9a9950505050505050505050565b60008151905061394881612a90565b92915050565b60006020828403121561396457613963612a7c565b5b600061397284828501613939565b91505092915050565b7f4c6976656e6573732063616e2774206265203000000000000000000000000000600082015250565b60006139b1601383612de8565b91506139bc8261397b565b602082019050919050565b600060208201905081810360008301526139e0816139a4565b9050919050565b7f4c6976656e657373206d757374206265206c657373207468616e20353230302060008201527f7765656b73000000000000000000000000000000000000000000000000000000602082015250565b6000613a43602583612de8565b9150613a4e826139e7565b604082019050919050565b60006020820190508181036000830152613a7281613a36565b9050919050565b7f426f6e6420746f6b656e206e6f7420737570706f727465640000000000000000600082015250565b6000613aaf601883612de8565b9150613aba82613a79565b602082019050919050565b60006020820190508181036000830152613ade81613aa2565b9050919050565b7f496e697469616c697a61626c653a20636f6e747261637420697320616c72656160008201527f647920696e697469616c697a6564000000000000000000000000000000000000602082015250565b6000613b41602e83612de8565b9150613b4c82613ae5565b604082019050919050565b60006020820190508181036000830152613b7081613b34565b9050919050565b6000613b8282612b1d565b9050919050565b613b9281613b77565b8114613b9d57600080fd5b50565b600081519050613baf81613b89565b92915050565b6000613bc8613bc384612c4d565b612c32565b905082815260208101848484011115613be457613be3612bbc565b5b613bef848285612df9565b509392505050565b600082601f830112613c0c57613c0b612bb7565b5b8151613c1c848260208601613bb5565b91505092915050565b600081519050613c3481612d5a565b92915050565b600080600080600060a08688031215613c5657613c55612a7c565b5b6000613c6488828901613ba0565b9550506020613c7588828901613547565b945050604086015167ffffffffffffffff811115613c9657613c95612a81565b5b613ca288828901613bf7565b9350506060613cb388828901613939565b9250506080613cc488828901613c25565b9150509295509295909350565b6000819050919050565b600060ff82169050919050565b6000613d03613cfe613cf984613cd1565b612b3d565b613cdb565b9050919050565b613d1381613ce8565b82525050565b6000602082019050613d2e6000830184613d0a565b92915050565b7f496e76616c69642070726f706f73616c20686173680000000000000000000000600082015250565b6000613d6a601583612de8565b9150613d7582613d34565b602082019050919050565b60006020820190508181036000830152613d9981613d5d565b9050919050565b7f50726f706f73616c206861736820646f6573206e6f7420657869737400000000600082015250565b6000613dd6601c83612de8565b9150613de182613da0565b602082019050919050565b60006020820190508181036000830152613e0581613dc9565b9050919050565b600081519050613e1b81612fdb565b92915050565b600060a08284031215613e3757613e36613231565b5b613e4160a0612c32565b90506000613e5184828501613499565b6000830152506020613e6584828501613499565b6020830152506040613e7984828501613499565b6040830152506060613e8d84828501613e0c565b6060830152506080613ea184828501613e0c565b60808301525092915050565b600081519050613ebc81612f43565b92915050565b60006102008284031215613ed957613ed8613231565b5b613ee4610180612c32565b90506000613ef484828501613e21565b60008301525060a0613f0884828501613e0c565b60208301525060c0613f1c84828501613c25565b60408301525060e0613f3084828501613499565b606083015250610100613f4584828501613ead565b608083015250610120613f5a84828501613c25565b60a083015250610140613f6f84828501613499565b60c083015250610160613f8484828501613939565b60e083015250610180613f9984828501613939565b610100830152506101a0613faf84828501613547565b610120830152506101c0613fc584828501613e0c565b610140830152506101e0613fdb84828501613e0c565b6101608301525092915050565b60006102008284031215613fff57613ffe612a7c565b5b600061400d84828501613ec2565b91505092915050565b7f4f4f76332075706772616465206e6f7420646574656374656400000000000000600082015250565b600061404c601983612de8565b915061405782614016565b602082019050919050565b6000602082019050818103600083015261407b8161403f565b9050919050565b7f454d206973206e6f74206120636f6e7472616374000000000000000000000000600082015250565b60006140b8601483612de8565b91506140c382614082565b602082019050919050565b600060208201905081810360008301526140e7816140ab565b9050919050565b7f52756c65732063616e206e6f7420626520656d70747900000000000000000000600082015250565b6000614124601683612de8565b915061412f826140ee565b602082019050919050565b6000602082019050818103600083015261415381614117565b9050919050565b7f4e487b7100000000000000000000000000000000000000000000000000000000600052603260045260246000fd5b7f5468652060746f6020616464726573732063616e6e6f74206265203078300000600082015250565b60006141bf601e83612de8565b91506141ca82614189565b602082019050919050565b600060208201905081810360008301526141ee816141b2565b9050919050565b7f454f412063616e27742061636365707420747820776974682064617461000000600082015250565b600061422b601d83612de8565b9150614236826141f5565b602082019050919050565b6000602082019050818103600083015261425a8161421e565b9050919050565b7f4e487b7100000000000000000000000000000000000000000000000000000000600052601160045260246000fd5b600061429b82612ae9565b91507fffffffffffffffffffffffffffffffffffffffffffffffffffffffffffffffff82036142cd576142cc614261565b5b600182019050919050565b600081519050919050565b600082825260208201905092915050565b6000819050602082019050919050565b61430d81612f1f565b82525050565b7f4e487b7100000000000000000000000000000000000000000000000000000000600052602160045260246000fd5b6002811061435357614352614313565b5b50565b600081905061436482614342565b919050565b600061437482614356565b9050919050565b61438481614369565b82525050565b61439381612ae9565b82525050565b600082825260208201905092915050565b60006143b582612e7e565b6143bf8185614399565b93506143cf818560208601612df9565b6143d881612bc1565b840191505092915050565b60006080830160008301516143fb6000860182614304565b50602083015161440e602086018261437b565b506040830151614421604086018261438a565b506060830151848203606086015261443982826143aa565b9150508091505092915050565b600061445283836143e3565b905092915050565b6000602082019050919050565b6000614472826142d8565b61447c81856142e3565b93508360208202850161448e856142f4565b8060005b858110156144ca57848403895281516144ab8582614446565b94506144b68361445a565b925060208a01995050600181019050614492565b50829750879550505050505092915050565b600060208201905081810360008301526144f68184614467565b905092915050565b7f4475706c69636174652070726f706f73616c73206e6f7420616c6c6f77656400600082015250565b6000614534601f83612de8565b915061453f826144fe565b602082019050919050565b6000602082019050818103600083015261456381614527565b9050919050565b6000610120820190508181036000830152614585818c612e9a565b9050614594602083018b613047565b6145a1604083018a613047565b6145ae6060830189613047565b6145bb6080830188612ef5565b6145c860a08301876131d6565b6145d560c0830186612af3565b6145e260e0830185612db3565b6145f0610100830184612db3565b9a9950505050505050505050565b600061460982612ae9565b915061461483612ae9565b925082820190508082111561462c5761462b614261565b5b92915050565b600082825260208201905092915050565b600061464e826142d8565b6146588185614632565b93508360208202850161466a856142f4565b8060005b858110156146a657848403895281516146878582614446565b94506146928361445a565b925060208a0199505060018101905061466e565b50829750879550505050505092915050565b600060408301600083015184820360008601526146d58282614643565b91505060208301516146ea602086018261438a565b508091505092915050565b60008154614702816135b8565b61470c8186612de8565b94506001821660008114614727576001811461473d57614770565b60ff198316865281151560200286019350614770565b614746856135e9565b60005b8381101561476857815481890152600182019150602081019050614749565b808801955050505b50505092915050565b600060a082019050818103600083015261479381886146b8565b90506147a26020830187612db3565b81810360408301526147b48186612e9a565b905081810360608301526147c881856146f5565b90506147d76080830184612af3565b9695505050505050565b7f4f776e61626c653a206e6577206f776e657220697320746865207a65726f206160008201527f6464726573730000000000000000000000000000000000000000000000000000602082015250565b600061483d602683612de8565b9150614848826147e1565b604082019050919050565b6000602082019050818103600083015261486c81614830565b9050919050565b7f4f776e61626c653a2063616c6c6572206973206e6f7420746865206f776e6572600082015250565b60006148a9602083612de8565b91506148b482614873565b602082019050919050565b600060208201905081810360008301526148d88161489c565b9050919050565b6000602082840312156148f5576148f4612a7c565b5b600061490384828501613e0c565b91505092915050565b7f496e697469616c697a61626c653a20636f6e7472616374206973206e6f74206960008201527f6e697469616c697a696e67000000000000000000000000000000000000000000602082015250565b6000614968602b83612de8565b91506149738261490c565b604082019050919050565b600060208201905081810360008301526149978161495b565b9050919050565b7f5265656e7472616e637947756172643a207265656e7472616e742063616c6c00600082015250565b60006149d4601f83612de8565b91506149df8261499e565b602082019050919050565b60006020820190508181036000830152614a03816149c7565b9050919050565b600081905092915050565b6000614a2082612e7e565b614a2a8185614a0a565b9350614a3a818560208601612df9565b80840191505092915050565b600081905092915050565b7f2c00000000000000000000000000000000000000000000000000000000000000600082015250565b6000614a87600183614a46565b9150614a9282614a51565b600182019050919050565b7f3a22000000000000000000000000000000000000000000000000000000000000600082015250565b6000614ad3600283614a46565b9150614ade82614a9d565b600282019050919050565b7f222c000000000000000000000000000000000000000000000000000000000000600082015250565b6000614b1f600283614a46565b9150614b2a82614ae9565b600282019050919050565b60008154614b42816135b8565b614b4c8186614a46565b94506001821660008114614b675760018114614b7c57614baf565b60ff1983168652811515820286019350614baf565b614b85856135e9565b60005b83811015614ba757815481890152600182019150602081019050614b88565b838801955050505b50505092915050565b7f2200000000000000000000000000000000000000000000000000000000000000600082015250565b6000614bee600183614a46565b9150614bf982614bb8565b600182019050919050565b6000614c108288614a15565b9150614c1b82614a7a565b9150614c278287614a15565b9150614c3282614ac6565b9150614c3e8286614a15565b9150614c4982614b12565b9150614c558285614a15565b9150614c6082614ac6565b9150614c6c8284614b35565b9150614c7782614be1565b91508190509695505050505050565b6000606082019050614c9b6000830186613047565b614ca86020830185613047565b614cb56040830184612af3565b949350505050565b6000604082019050614cd26000830185613047565b614cdf6020830184613047565b9392505050565b6000604082019050614cfb6000830185613047565b614d086020830184612af3565b9392505050565b6000614d1b8286614a15565b9150614d278285614a15565b9150614d338284614a15565b9150819050949350505050565b7f5361666545524332303a204552433230206f7065726174696f6e20646964206e60008201527f6f74207375636365656400000000000000000000000000000000000000000000602082015250565b6000614d9c602a83612de8565b9150614da782614d40565b604082019050919050565b60006020820190508181036000830152614dcb81614d8f565b9050919050565b7f3a00000000000000000000000000000000000000000000000000000000000000600082015250565b6000614e08600183614a46565b9150614e1382614dd2565b600182019050919050565b6000614e2982614a7a565b9150614e358284614a15565b9150614e4082614dfb565b915081905092915050565b6000614e578284614a15565b9150614e6282614dfb565b915081905092915050565b6000819050919050565b614e88614e8382612a86565b614e6d565b82525050565b6000614e9a8285614e77565b602082019150614eaa8284614e77565b6020820191508190509392505050565b7f4e487b7100000000000000000000000000000000000000000000000000000000600052601260045260246000fd5b7f416464726573733a20696e73756666696369656e742062616c616e636520666f60008201527f722063616c6c0000000000000000000000000000000000000000000000000000602082015250565b6000614f45602683612de8565b9150614f5082614ee9565b604082019050919050565b60006020820190508181036000830152614f7481614f38565b9050919050565b6000614f878284614a15565b915081905092915050565b7f416464726573733a2063616c6c20746f206e6f6e2d636f6e7472616374000000600082015250565b6000614fc8601d83612de8565b9150614fd382614f92565b602082019050919050565b60006020820190508181036000830152614ff781614fbb565b905091905056fea2646970667358221220248d3f5203927b5d05efe167abf173c6b49de3d9d56d2871f2c69e3a539c2de964736f6c63430008100033","linkReferences":{}},"methodIdentifiers":{"EXPLANATION_KEY()":"9cd5b115","PROPOSAL_HASH_KEY()":"f913f33a","RULES_KEY()":"5ad02cab","assertionDisputedCallback(bytes32)":"d448a4ec","assertionIds(bytes32)":"5da08758","assertionProposer(bytes32)":"ac1f5ab4","assertionResolvedCallback(bytes32,bool)":"f1b156b2","assertionTimestamps(bytes32)":"7e953e3e","bondAmount()":"80f323a7","bundles(uint256,address)":"80deec36","collateral()":"d8dfeb45","deleteProposalOnUpgrade(bytes32)":"ae054fdc","escalationManager()":"c5b02989","finder()":"b9a3c84c","getCurrentTime()":"29cb924d","getProposalBond()":"1b61cd22","identifier()":"7998a1c4","lastFinalizedTimestamp()":"413e9cde","liveness()":"6ad0690a","optimisticOracleV3()":"226beb19","owner()":"8da5cb5b","proposalHashes(bytes32)":"50564e19","proposeBundle(string)":"2618f0c6","proposeTransactions((address,uint8,uint256,bytes)[],bytes)":"e20dac00","renounceOwnership()":"715018a6","rules()":"52f6747a","setCollateralAndBond(address,uint256)":"75e0fc39","setEscalationManager(address)":"ca22b65a","setIdentifier(bytes32)":"00c99206","setLiveness(uint64)":"3c4432f1","setRules(string)":"ce0d8d20","setUp(bytes)":"a4f9edbf","sync()":"fff6cae9","transferOwnership(address)":"f2fde38b"},"id":49}